:020000040800F2
:100000000007002089010008BD19000895170008A5
:10001000B919000845020008D119000800000000C5
:10002000000000000000000000000000C5190008EA
:100030004902000800000000C1190008C9190008A1
:10004000A3010008A3010008A3010008A301000800
:10005000A3010008A3010008A3010008A3010008F0
:10006000A3010008A3010008A3010008A3010008E0
:10007000A3010008A3010008A3010008A3010008D0
:10008000A3010008A3010008A3010008A3010008C0
:10009000A3010008A3010008A3010008A3010008B0
:1000A000A3010008A3010008A3010008A3010008A0
:1000B000A3010008A3010008A3010008A301000890
:1000C000A3010008A3010008A3010008A301000880
:1000D000A3010008A3010008A3010008A301000870
:1000E000A3010008A3010008A301000800F002F822
:1000F00000F03AF80AA090E8000C82448344AAF188
:100100000107DA4501D100F02FF8AFF2090EBAE885
:100110000F0013F0010F18BFFB1A43F0010318473B
:10012000A41E0000C41E0000103A24BF78C878C185
:10013000FAD8520724BF30C830C144BF04680C60ED
:10014000704700000023002400250026103A28BF35
:1001500078C1FBD8520728BF30C148BF0B60704739
:100160001FB51FBD10B510BD00F031F81146FFF7E7
:10017000F7FF01F007FD00F04FF803B4FFF7F2FFBF
:1001800003BC00F057F800000948804709480047C1
:10019000FEE7FEE7FEE7FEE7FEE7FEE7FEE7FEE737
:1001A000FEE7FEE704480549054A064B7047000094
:1001B000CD190008ED000008000100200007002014
:1001C0000003002000030020704770477047754609
:1001D00000F02CF8AE4605006946534620F00700B3
:1001E000854618B020B5FFF7DDFFBDE820404FF091
:1001F00000064FF000074FF000084FF0000BAC4630
:10020000ACE8C009ACE8C009ACE8C009ACE8C0097A
:1002100021F007018D46704710B50446AFF300800A
:100220002046BDE81040FFF7A8BF00000048704717
:100230004000002001491820ABBEFEE72600020066
:1002400070470000FEE7000070470000B0B50446AC
:1002500000F00EFA054640F23000C2F200000078CD
:10026000611C18BF044400BF00F002FA401BA0420A
:10027000FAD3B0BD2DE9F04F83B08246A0F18040A3
:10028000A0F584304FEAB024052C0D4606D341F684
:100290004E70C0F60000BD2101F09CFB28680021D3
:1002A000B1EB104F01D180B230B941F64E70C0F6BB
:1002B0000000BE2101F08EFB68684FF6FF77C1F2A7
:1002C00010074FF6FF71B842C1F221010CDC122871
:1002D00000F28E81012101FA00F00F21C0F2060127
:1002E000084223D184E100BF88420FDC0021C1F223
:1002F000110188421AD00021C1F21201884215D0A2
:100300000021C1F22101884210D071E10021C1F227
:10031000220188420AD00021C1F23101884205D071
:100320000021C1F23201884240F062812868002831
:1003300000F0698140F2004C41F20041C4F2010C2E
:10034000C4F2010104224FF000084FF0010E002614
:100350004FF000098A4508BF03220092019449E04A
:1003600041F20002C4F201029245009A08BF022243
:1003700008F00C040F27A740B943A240B30811436B
:1003800040F8231068684FF6FF77C103DCF80010CF
:1003900054BF21EA0B0141EA0B01CCF80010019C8B
:1003A000DCF80410820354BF21EA0B0141EA0B017F
:1003B000CCF80410DCF80810C20254BF21EA0B018B
:1003C00041EA0B01CCF8081040F20C418002C4F263
:1003D0000101C1F21007086854BF20EA0B0040EA8F
:1003E0000B0008602868013630FA06F108F10408AD
:1003F00000F009810EFA06FB10EA0B0FF2D0052C73
:100400000CD341F64E70C0F60000CD2101F0E2FAA7
:1004100040F2004C4FF0010EC4F2010C6868B84283
:1004200026DC122800F2AE80DFE800F0480A687E81
:10043000ACACACACACACACACACACACACAC829800E6
:10044000D5F80C90A9F101000328C0F09B8041F67B
:100450004E70C0F60000D52101F0BCFA40F2004C0D
:10046000D5F80C904FF0010EC4F2010C8AE000BFE9
:100470004FF6FF71C1F2210188420FDC0021C1F269
:10048000110188421AD00021C1F21201884215D010
:100490000021C1F22101884210D073E00021C1F295
:1004A000220188420AD00021C1F23101884205D0E0
:1004B0000021C1F23201884264D100BFA86803283C
:1004C0000DD341F64E70C0F60000F72101F082FA1C
:1004D00040F2004CA8684FF0010EC4F2010C48B184
:1004E000012814BFCAF814B0CAF810B04FF00809B8
:1004F00048E000BF4FF0040944E000BFE868411E37
:1005000003290DD341F64E70C0F60000E32101F03F
:1005100061FA40F2004CE8684FF0010EC4F2010CA1
:1005200000F108092EE000BF4FF000092AE000BFEB
:10053000E868411E03290DD341F64E70C0F6000055
:10054000DC2101F047FA40F2004CE8684FF0010E60
:10055000C4F2010C00F1040914E000BFE868411E78
:1005600003290DD341F64E70C0F60000EA2101F0D8
:1005700031FA40F2004CE8684FF0010EC4F2010C71
:1005800000F10C0940465146082E24BF20380431A2
:100590000A680F2383409A4309FA00F01043086069
:1005A000E879C0067FF51EAF41F21801C4F20201DE
:1005B000086840F6000240F001000860086826F074
:1005C000030100F0010002900298ACF57E704158E2
:1005D000C4F20102924509D040F60042C4F2010281
:1005E00092457FF4BDAE0122C2E600BF0022BFE605
:1005F00041F64E70C0F60000BF2101F0EBF928680B
:1006000000287FF497AE03B0BDE8F08FB0B50C467C
:10061000054639B941F64E70C0F600004FF4DA7164
:1006200001F0D8F9A868204018BF0120B0BD000033
:1006300070B516460C46054631B1022E0ED2002E7C
:1006400008BF24042C6170BD41F64E70C0F6000056
:100650004FF4EA7101F0BEF9022EF0D341F64E706C
:10066000C0F6000040F2D51101F0B4F92C6170BD64
:1006700040F2FC00C2F200000068704770B500282C
:1006800000F084800446006845F20041C4F2000195
:1006900088420DD045F60001C4F20001884207D01F
:1006A00041F6DE60C0F6000040F2D11101F092F98F
:1006B000606841F680210138C0F20601884267D2A5
:1006C000A06840F48040B0F5804F6FD1E068B0F58D
:1006D000806F77D2206940F40040B0F5404F40F081
:1006E00080806069022880F08880A0696FF0FE0138
:1006F000084207D041F6DE60C0F6000040F2D71194
:1007000001F068F9E06940F04000402840F0BC800A
:10071000206A40F08000802840F0C48094F83D00BA
:1007200028B9002084F83C00204600F04DFB24202E
:1007300084F83D002068016821F001010160016832
:1007400041F400410160016821F40041016000F0C2
:1007500073FD48F28041C0F21E0140F60013D4F848
:1007600004E088424FF00001C0F23D0348F2A16C62
:100770004FF0000238BF01219842C0F2010C38BF8F
:100780000122E64538BF0A46002A45D0012070BD47
:1007900041F6DE60C0F600004FF4E97101F01AF98D
:1007A000A06840F48040B0F5804F8FD041F6DE6005
:1007B000C0F6000040F2D31101F00CF9E068B0F58A
:1007C000806F87D341F6DE60C0F600004FF4EA7117
:1007D00001F000F9206940F40040B0F5404F3FF4CB
:1007E00080AF41F6DE60C0F6000040F2D51101F0A6
:1007F000F1F860690228FFF478AF41F6DE60C0F6D8
:1008000000004FF4EB7101F0E5F8A0696FF0FE0114
:1008100008427FF46FAF75E74DF68361C4F21B3178
:10082000A0FB01122168950C4B684FF4967623F0DB
:100830003F0343EA9243754344F6D3564B60C1F2FB
:1008400062060B6AA5FB0656B50923F03F03E64591
:1008500038BF950C6A1C1A430A62CA6948F2A0663E
:100860004CF6FF73C0F20106B64522EA030227D810
:1008700001384FEA4E03B0FBF3F001306FF31F3045
:10088000042898BF04203AE041F6DE60C0F600007C
:100890004FF4EC7101F09EF8206A40F0800080284F
:1008A0003FF43CAF41F6DE60C0F6000040F2D911E3
:1008B00001F090F894F83D0000287FF438AF30E75D
:1008C000A368013863B119230EFB03F3B0FBF3F007
:1008D00001306FF31F3078B100F5804008E000BFB1
:1008E0000EEB4E03B0FBF3F001306FF31F3028B175
:1008F00000F5004003E000BF012000E001201043AC
:10090000C8610868D4E9072320F0C00010431843E9
:100910000860886848F2FF3204F10C0690434CCE20
:1009200018431043A5698860C86820F0FF00304371
:100930002843C860086840F00100086000202021BA
:10094000206484F83D10206384F83E0070BD0000F0
:100950002DE9F04381B01F46164688460446FFF74E
:1009600087FE94F83D10202920D105462068816932
:10097000890717D5FFF77CFE401B1928F6D9002000
:100980002021206384F83D1084F83E00216C02266B
:1009900041F02001216484F83C00304601B0BDE8FC
:1009A000F08300BF94F83C10012905D1022630469F
:1009B00001B0BDE8F08300BF012184F83C1001685C
:1009C000C90703D1016841F001010160016821F408
:1009D00000610160212184F83D10102184F83E104F
:1009E0000021216466626785618D21850021CFF633
:1009F000FF71E162E16A11F5803F18BF012919D149
:100A0000016841F4807101604169DDF82090C907F7
:100A100023D119F1010116D0B9F1000F46D000BF62
:100A2000FFF726FE401B484542D820684169C907A8
:100A3000F6D012E00829E3D0216B1229E0D0E3E7D9
:100A40004169C90709D14169C90706D14169C90787
:100A500004BF41695FEAC171F2D02169B1F5804FED
:100A600002D1FE2161E000BF062101EAD811F03178
:100A700001614169090757D4416919F1010201F483
:100A800080612FD0002946D1B9F1000F00F04281DA
:100A9000FFF7EEFD401B484500F23E8120684169AA
:100AA000090741D441694905F2D534E0FFF7E0FD7B
:100AB00000202021206384F83D1084F83E00216C42
:100AC000012641F020012164216884F83C00086877
:100AD000C00544BF4FF400702064304601B0BDE84B
:100AE000F08300BFB9B9416909071DD441694905BF
:100AF00011D44169090717D4416949050BD44169EB
:100B0000090711D44169490505D4416909070BD486
:100B100041694905E7D5016841F4007101606FF44E
:100B2000806141610420F8E0FF2101EA08010161D0
:100B3000416989073AD4416919F1010201F48061E0
:100B400012D051BBB9F1000F00F0E080FFF790FD2B
:100B5000401B484500F2DC8020684169890725D4A4
:100B600041694905F2D518E0B9B9416989071DD431
:100B70004169490511D44169890717D4416949057B
:100B80000BD44169890711D44169490505D44169EC
:100B900089070BD441694905E7D5016841F4007123
:100BA00001606FF4806141610420B6E00026009688
:100BB00041690091816900910099218D002900F01F
:100BC000958009F10108014651F8142F120635D419
:100BD000B8F1000F16D0B9F1000F00F0AF8000BFE0
:100BE0000868400500F1B280FFF742FD401B484510
:100BF00000F2A9802068014651F8142F1206EFD5A3
:100C00001CE000BF0A68520500F1A0800A681206C5
:100C100014D40A68520500F199800A6812060DD4AE
:100C20000A68520500F192800A68120606D40A6822
:100C3000520500F18B800A681206E3D5636A1946F3
:100C400011F8012B02616162618D01396185278D87
:100C50000146A7F1010CA4F828C051F8142F52073F
:100C60000DD55FEA0C420AD05A78A7F1020C026156
:100C70009A1C6262628D013A6285A4F828C00A68F3
:100C800052072FD4B8F1000F14D0B9F1000F7BD068
:100C90000868400500F18080FFF7EAFC401B4845EA
:100CA00077D82068014651F8142F5207F0D5B4F8D0
:100CB00028C017E00A6852056ED40A68520711D49A
:100CC0000A68520568D40A6852070BD40A685205AC
:100CD00062D40A68520705D40A6852055CD40A68CF
:100CE0005207E7D55FEA0C417FF46DAF016841F42C
:100CF00000710160202084F83D0084F83E6084F893
:100D00003C60304601B0BDE8F08300BFFFF7B0FCA7
:100D1000202002E0FFF7ACFC2020002120222163EC
:100D200084F83D2084F83E10226C01261043206494
:100D300084F83C10304601B0BDE8F08308684005F7
:100D400004D4FFF795FC202004E000BF6FF480601E
:100D50000860042000212022216384F83D2084F8CB
:100D60003E10226C1043206484F83C10206C042850
:100D700025D120680126016841F4007101603046E8
:100D800001B0BDE8F08300BF0868400504D4FFF758
:100D90006FFC202004E000BF6FF480600860042036
:100DA00000212022216384F83D2084F83E10226C2B
:100DB0001043206484F83C10206C0428D9D001260C
:100DC000304601B0BDE8F08310B586B045F2004171
:100DD0000068C4F2000100228842049202D006B0EA
:100DE00010BD00BF41F21804C4F20204206840F0B4
:100DF00008002060206800F0080001900198C020E1
:100E00000290122003900320059001F5384002A9BA
:100E1000FFF730FA606840F400106060606800F42A
:100E200000100190019806B010BD000040F23000A3
:100E300040F2FC01C2F20000C2F2000100780A6830
:100E4000104408607047000080B542F20000C4F210
:100E50000200016841F010010160032000F08EF8EB
:100E60000F2000F005F800F027F8002080BD0000FA
:100E700070B540F23006C2F2000640F23801327816
:100E8000C2F200014FF47A730968B3FBF2F2044630
:100E9000B1FBF2F1084600F067FC0F2C4FF00105A2
:100EA00008D838B94FF0FF3021460022002500F065
:100EB00025F87460284670BD82B041F21800C4F273
:100EC00002000168022241F001010160016801F0A5
:100ED000010101910199416841F0805141604068F0
:100EE00000F08050009000980420C4F201000168D6
:100EF00062F31A61016002B07047000070B51546D8
:100F00000E46102A044606D341F68770C0F600004C
:100F1000AA2100F05FFD102E06D341F68770C0F6BF
:100F20000000AB2100F056FD4EF60C50CEF2000052
:100F300001684FF0FF33C1F3022181F00702042A58
:100F400028BF0422033903FA02F238BF002126EA3F
:100F500002028A4003FA01F125EA0101114304F07B
:100F60000F02043A104404F16042090102F56442A0
:100F7000002C48BF00F10C02117070BD10B5044682
:100F80000338052806D341F68770C0F60000922189
:100F900000F020FD4EF60C50CEF2000001684FF636
:100FA000FF02114064F30A2141F0806141F0FD71BC
:100FB000016010BD2DE9F04381B0002800F0D88019
:100FC000044600780D46000700F0B280032D07D3D9
:100FD00041F61670C0F6000040F2393100F0FAFC1C
:100FE00042F20008C4F20208D8F8000000F007003E
:100FF000A8420DD2D8F8000020F007002843C8F816
:101000000000D8F8000000F00700A84240F0B080CF
:10101000206841F204098107C4F202091FD5410783
:1010200005D5D9F8001041F4E061C9F800100007B7
:1010300005D5D9F8000040F46050C9F80000A06858
:101040006FF0070101EB3011082980F0E580D9F835
:10105000001021F0F0010843C9F800002068C00723
:1010600072D1D8F8000000F00700A8420CD9D8F8D7
:10107000000020F007002843C8F80000D8F800005E
:1010800000F00700A84273D1206841071AD5E06834
:101090006FF0030101EB302104290BD34FEA30211B
:1010A00041B141F61670C0F600004FF4697100F0CE
:1010B00091FCE068D9F8001021F4E0610843C9F818
:1010C0000000206800071AD520696FF0030101EBCA
:1010D000302104290BD34FEA302141B141F616707B
:1010E000C0F6000040F2AB3100F074FC2069D9F882
:1010F000001021F4605141EAC000C9F80000D9F89D
:10110000002002F00C00082841F20020C0F27A0012
:1011100066D141F69E63C2F38341C0F60003595C79
:10112000D20351D440F60010C0F23D00484357E0CE
:1011300041F61670C0F600004FF44E7100F04AFC04
:10114000032DBFF445AF4BE76068032808D341F691
:101150001670C0F6000040F2663100F03BFC60689B
:10116000022809D0012829D159F8041C890307D481
:10117000012001B0BDE8F08359F8041C8901F7D5BE
:10118000D9F8001021F003010843C9F80000FFF767
:101190006FFA064641F28837D9F80000616800F01E
:1011A0000C00B0EB810F3FF45CAFFFF761FA801BDE
:1011B000B842F1D9032001B0BDE8F08359F8041C0E
:1011C0008907D5D5DCE700BFD9F8002041F6846354
:1011D000C2F34042C0F600039A5C4843B0FBF2F011
:1011E000D9F8001041F68662C1F30311C0F600027F
:1011F000515C40F2380220FA01F140F23400C2F2B0
:1012000000000068C2F200021160FFF731FE00200A
:1012100001B0BDE8F08300BF4FEA301100293FF470
:1012200016AF41F61670C0F6000040F25F3100F0D4
:10123000D1FBA0680BE7000040F2380041F2040146
:10124000C2F20000C4F202010068096841F6966229
:10125000C1F30221C0F60002515CC8407047000093
:101260002DE9F04182B0002800F0AA800446006811
:1012700058B110F00F0108D141F61670C0F6000009
:1012800040F2671100F0A6FB206841F20006C0079B
:10129000C4F202062ED06068002818BFB0F5803F67
:1012A00040F00E81706800F00C0004281CD07068BB
:1012B00000F00C00082802D17068C00314D46068E4
:1012C000002800F0ED81B0F5A02F00F00182B0F50C
:1012D000803F00F00182306820F480303060306858
:1012E00020F48020FBE100BF3068800302D56068F5
:1012F000002865D02078800738D52069022807D2D9
:10130000606920280FD2706810F00C0F17D120E010
:1013100041F61670C0F6000040F2A11100F05AFB31
:1013200060692028EFD341F61670C0F600004FF434
:10133000D17100F04FFB706810F00C0F09D070688D
:1013400000F00C00082840F091807068C00300F1A4
:101350008D803068800702D52069012830D130683F
:10136000616920F0F80040EAC10030602078000791
:101370002AD42078400749D4E069032808D341F6ED
:101380001670C0F6000040F2AF2100F023FBE069C8
:1013900090B1716801F00C01082940F0B380012878
:1013A0000ED07068216A00F480328A4208D1616AE6
:1013B00000F47010884203D1002002B0BDE8F08133
:1013C000012002B0BDE8F081A069022808D341F6EF
:1013D0001670C0F600004FF4F17100F0FBFAA0693E
:1013E000002800F07B806020C4F242200121C0F878
:1013F0002014FFF73DF90546706A800700F1B480BC
:10140000FFF736F9401B0228F6D976E1E068052897
:1014100000F2EA80012101FA00F010F0230F00F041
:10142000E380F06910F0805808D1F06940F08050F6
:10143000F061F06900F080500090009847F20007DA
:10144000C4F200073868C00528D4386840F48070BA
:101450003860FFF70DF905463868C0051ED4FFF760
:1014600007F9401B6428F7D947E100BF206900282D
:1014700000F0A4806020C4F24220012140F8601CEA
:10148000FFF7F6F8054600BF306880073FF567AF05
:10149000FFF7EEF8401B0228F6D92EE1E06800289D
:1014A00000F0C280052800F0D980012800F0DA8021
:1014B000306A20F001003062306A20F00400D4E08D
:1014C000B0F5A02F3FF4EEAE41F61670C0F6000066
:1014D00040F26D1100F07EFAE4E600BF6020C4F235
:1014E00042200021C0F82014FFF7C2F8054600BFD3
:1014F000706A80077FF53DAFFFF7BAF8401B0228FE
:10150000F6D9FAE060270228C4F242277AD1206A8D
:1015100040F48030B0F5803F07D041F61670C0F639
:1015200000004FF42E7100F055FA606A4FEAB040A7
:101530000F2807D341F61670C0F6000040F2B9211B
:1015400000F048FA00203860FFF792F8054600BF27
:101550003068800140F1D680FFF78AF8401B0228EE
:101560004FF00300F4D928E740F23800C2F200003F
:10157000006844F6D351C1F26201A0FB0101480AA0
:10158000019000BF00BF0198411E002801913FF467
:10159000F0AE00BF0198411E002801913FF4E9AE72
:1015A00000BF0198411E002801913FF4E2AE00BF48
:1015B0000198411E00280191E4D1DAE66020C4F2CE
:1015C0004220002140F8601CFFF752F8054600BF9A
:1015D000306880077FF5CAAEFFF74AF8401B022843
:1015E0004FF00300F4D9E8E641F61670C0F60000AB
:1015F00040F2112100F0EEF9F06910F080583FF44C
:1016000014AF1BE700203860FFF732F8044600BF34
:10161000306880017FF5D0AEFFF72AF8001B022862
:101620004FF00300F4D9C8E6306A20F001003062C0
:10163000306A20F004003062FFF71AF8054641F2E4
:10164000883700BF306A800720D5FFF711F8401BAC
:10165000B8424FF00300F5D9AFE600BF306A40F062
:1016600004003062306A40F001003062FFF700F899
:10167000054641F2883700BF306A800706D4FEF77E
:10168000F7FF401BB842F7D937E000BFB8F1000FB1
:101690007FF472AEF06920F08050F0616CE600BF1C
:1016A000306820F480303060306820F48020306072
:1016B000FEF7DEFF054600BF306880037FF51AAEF7
:1016C000FEF7D6FF401B64284FF00300F4D974E600
:1016D000306840F480203060306840F48030306002
:1016E000FEF7C6FF054600BF306880033FF502AE37
:1016F000FEF7BEFF401B6428F6D9032002B0BDE808
:10170000F08100BF206AB0F5803F14D1A06840F49A
:101710000031B1F5003F08D041F61670C0F6000068
:1017200040F2CF2100F056F9A068716821F4003131
:1017300008437060206A7168626A21F4741108437A
:101740001043706001203860FEF792FF044600BF2E
:10175000306880013FF530AEFEF78AFF001B02289B
:101760004FF00300F4D928E6411E0020B0EB116FC2
:101770001CBF012070474EF21002CEF200025160F1
:101780004EF62351CEF20001F0230B70072190603A
:1017900011607047FEE7000070B540F20004C2F22D
:1017A0000004206921880122FEF742FF60696188F8
:1017B0000122FEF73DFFA069A1880122FEF738FF54
:1017C000E069E1880122FEF733FF206921880022C9
:1017D0000025FEF72DFF206A2189FEF717FF00285C
:1017E00000F0B280606A6189FEF710FF002800F007
:1017F000AD80A06AA189FEF709FF002800F0AA8049
:10180000E06AE189FEF702FF002800F0A780206966
:10181000218801220125FEF70BFF60696188012202
:10182000FEF706FFA069A1880122FEF701FFE0692B
:10183000E1880122FEF7FCFE606961880022002633
:10184000FEF7F6FE206A2189FEF7E0FE002800F090
:10185000AB80606A6189FEF7D9FE002800F08280C3
:10186000A06AA189FEF7D2FE002800F07F80E06A1E
:10187000E189FEF7CBFE00287CD020692188012277
:10188000FEF7D6FE606961880122FEF7D1FEA069ED
:10189000A1880122FEF7CCFEE069E1880122FEF773
:1018A000C7FEA069A18800220026FEF7C1FE206ABB
:1018B0002189FEF7ABFE002860D0606A6189FEF7DF
:1018C000A5FE00285CD0A06AA189FEF79FFE002833
:1018D0005AD0E06AE189FEF799FE002858D02069C5
:1018E00021880122FEF7A4FE606961880122FEF7CB
:1018F0009FFEA069A1880122FEF79AFEE069E188B7
:101900000122FEF795FEE069E18800220026FEF73D
:101910008FFE206A2189FEF779FE00283CD0606A9C
:101920006189FEF773FEC8B3A06AA189FEF76EFE57
:10193000C0B3E06AE189FEF769FE00281CBF002001
:1019400070BD032503262FE000262DE0012600258B
:101950002AE000BF0226002526E000BF032600255E
:1019600022E000BF012501261EE000BF022601255E
:101970001AE000BF0326012516E000BF022513E090
:101980000126022510E000BF022502260CE000BF60
:101990000326022508E000BF032505E001260325F4
:1019A00002E000BF0226032541F6AE60C0F600004B
:1019B00000EB8500805D70BDFEE70000FEE70000E3
:1019C0007047000070470000FFF730BA7047000012
:1019D000FEE700007047000080B582B001F14003CF
:1019E00063F07F036FF07F02012808BF81EA0203E2
:1019F00023F00F00190100F10C0208308DF80500EA
:101A000001F10C008DF8060001F108008DF80700C7
:101A100040F2A8008DF804204FF0640CC2F20000E0
:101A200001AA4E210423CDF800C0FEF791FF02B0B9
:101A300080BD0000B0B582B043F63C0040F2A8047F
:101A4000C3F63C00C2F200040190642501AA2046BE
:101A50004E2104230095FEF77BFF43F63C00C2F6BF
:101A60002C00019001AA20464E2104230095FEF788
:101A70006FFF3220FEF7EAFB42F62C00C8F68C001E
:101A8000019001AA20464E2104230095FEF760FF35
:101A90003220FEF7DBFB40F60C00C1F61C00019083
:101AA00001AA20464E2104230095FEF751FF322063
:101AB000FEF7CCFB40F60C00C6F66C00019001AAC4
:101AC00020464E2104230095FEF742FF3220FEF708
:101AD000BDFB40F60C00CCF6CC00019001AA2046DC
:101AE0004E2104230095FEF733FF3220FEF7AEFBB4
:101AF00040F60C00C2F62C00019001AA20464E21AF
:101B000004230095FEF724FF3220FEF79FFB48F6E2
:101B10008C00C0F60C00019001AA20464E2104233F
:101B20000095FEF715FF02B0B0BD0000F0B583B020
:101B3000017821B340F2A804461E6427C2F20004D3
:101B400002AD00BF21F00F00090100F10D020930C4
:101B50008DF8090001F10D008DF80A0001F109006E
:101B60008DF808208DF80B0020464E212A460423CC
:101B70000097FEF7EDFEB17801360029E2D103B0FF
:101B8000F0BD000090B0FFF75FF94FF48030002403
:101B90000125079006A8CDE90E44CDE90C44CDE916
:101BA0000A44CDE908440695FFF75AFB20B1EFF34C
:101BB000108072B6FEE700BF0F2601A80021CDE914
:101BC0000165CDE903440594FFF7F4F920B1EFF383
:101BD000108072B6FEE700BF4FF0000841F2180017
:101BE000CDE90888C4F20200016840F6000441F023
:101BF000100101600168C4F2010401F010010191BB
:101C000001990168002241F020010160016801F0A2
:101C1000200101910199016841F00401016001680E
:101C200001F0040101910199016841F0080101608E
:101C300000680F2100F00800019001982046FEF78F
:101C4000F7FC4FF4604006AD0690032704F50060F2
:101C500029460797FEF70EFB02204FF00109099075
:101C6000204629460696CDE90798FEF703FBF020AB
:101C700006A981E8010320462946FEF7FBFA4FF644
:101C80003F70CDE9060704F580602946FEF7F2FAB9
:101C90004FF41F40CDE9060720462946FEF7EAFA31
:101CA00040F2A006C2F20006A4F53441304640F8E6
:101CB000081F48F2A061C0F201014FF48042C0E960
:101CC0000118C0E90382C0E90588C0E90788FEF76A
:101CD000D5FC28B1EFF3108072B600BFFEE700BF5D
:101CE000FFF7A8FE01200021FFF776FE61A0FFF7B5
:101CF0001DFF6420FEF7AAFA41F6C46741F6DA6BCD
:101D000041F6DC6A5DA4C0F60007C0F6000BC0F621
:101D1000000A00BFFFF740FD7178884206D00546F3
:101D200086F80090FEF7A4FC70607570307848B1BA
:101D3000FEF79EFC7168401A0F2803D3707886F86E
:101D40000080B07000200021FFF746FE2046FFF71C
:101D5000EDFE00200621FFF73FFEB078A0F1230141
:101D60002129D7D83846DFE801F0171515151515C4
:101D7000151D151515151525112D353D454D555DAF
:101D800065151515151515156D757D81FFF7CEFEB9
:101D9000C0E700BFBEE700BF41F6BE60C0F600006E
:101DA000F4E700BF41F6C060C0F60000FFF7BEFEDA
:101DB000B0E700BF41F6C260C0F60000FFF7B6FE14
:101DC000A8E700BF41F6C660C0F60000FFF7AEFE10
:101DD000A0E700BF41F6C860C0F60000FFF7A6FE0E
:101DE00098E700BF41F6CA60C0F60000FFF79EFE0C
:101DF00090E700BF41F6CC60C0F60000FFF796FE0A
:101E000088E700BF41F6CE60C0F60000FFF78EFE07
:101E100080E700BF41F6D060C0F60000FFF786FE05
:101E200078E700BF41F6D260C0F60000FFF77EFE03
:101E300070E700BF41F6D460C0F60000FFF776FE01
:101E400068E700BF41F6D660C0F60000FFF76EFEFF
:101E500060E700BF41F6D860C0F60000FFF766FEFD
:101E600058E700BF5846FFF761FE53E75046FFF7BB
:101E70005DFE4FE74E484F4D203130004B65793ABB
:101E8000200000000102000000000000000001022C
:101E9000030406070809000000000102030402030E
:101EA0000405060708090A0B0C0D0E0F101031323D
:101EB000334134353642373839432A3023442300FE
:101EC0002A00300031003200330034003500360083
:101ED00037003800390041004200430044002E2EF4
:101EE0002F447269766572732F53544D33324631E5
:101EF00078785F48414C5F4472697665722F5372FF
:101F0000632F73746D3332663178785F68616C5F0C
:101F10006932632E63002E2E2F44726976657273C8
:101F20002F53544D3332463178785F48414C5F44EB
:101F300072697665722F5372632F73746D333266D4
:101F40003178785F68616C5F7263632E63002E2E58
:101F50002F447269766572732F53544D3332463174
:101F600078785F48414C5F4472697665722F53728E
:101F7000632F73746D3332663178785F68616C5F9C
:101F80006770696F2E63002E2E2F4472697665721A
:101F9000732F53544D3332463178785F48414C5F4C
:101FA0004472697665722F5372632F73746D333286
:101FB000663178785F68616C5F636F727465782EE4
:101FC00063000000E81F000800000020400000003F
:101FD000280100082820000840000020C00600005A
:101FE0004401000800000000010002000400080095
:101FF000100020004000800000080140000801405F
:1020000000080140000801400008014000080140AC
:10201000000801400008014001000000100000001D
:082020000024F40000000000A0
:04000005080000ED02
:00000001FF
